:020000040000FA
:100000000C94F8020C9420030C9420030C9420030D
:100010000C9420030C9420030C9420030C942003D4
:100020000C9420030C9420030C9420030C942003C4
:100030000C9420030C9420030C9420030C942003B4
:100040000C948C090C9420030C945A090C943409D8
:100050000C9420030C9420030C9420030C94200394
:100060000C9420030C9420030000000025002800BD
:100070002B000000000023002600290000000008DB
:10008000000201000003040700000000000000005F
:1000900000000000240027002A00010204081020AC
:1000A000408001020408102001020408102004040A
:1000B0000404040404040202020202020303030310
:1000C00003034602000000FF0800053E5B4F5B3E55
:1000D000053E6B4F6B3E051C3E7C3E1C05183C7E6E
:1000E0003C18051C577D571C051C5E7F5E1C0400D8
:1000F000183C1805FFE7C3E7FF040018241805FFA4
:10010000E7DBE7FF0530483A060E05262979292660
:1001100005407F05050705407F05253F055A3CE75B
:100120003C5A057F3E1C1C0805081C1C3E7F05141C
:10013000227F221405FFFFFFFFFF05F0F0F0F0F033
:1001400003FFFFFF05000000FFFF050F0F0F0F0F5C
:100150000508047E04080510207E20100508082AE2
:100160001C0805081C2A080805AA005500AA05AAAB
:1001700055AA55AA0530383E383005060E3E0E0603
:10018000020000015F0307000705147F147F1405B8
:10019000444AFF4A32056313086463053649493609
:1001A000480107033E41410341413E05082A1C2AFC
:1001B000080508083E08080260E00408080808026C
:1001C0006060056010080403053E5149453E030484
:1001D000027F057149494946054149494936050F9C
:1001E0000808087F054F49494931053E49494930CA
:1001F00005030101017F053649494936050649498C
:10020000493E026C6C026CEC0308142204141414B2
:100210001403221408050159090906053E415D59D8
:100220004E057E0909097E057F49494936053E414B
:10023000414141057F4141413E057F4949494105D1
:100240007F09090901053E41414979057F080808F0
:100250007F03417F4105304141413F057F08142222
:1002600041057F40404040057F020C027F057F042E
:1002700008107F053E4141413E057F0909090605F9
:100280003E4141617E057F09192946054649494994
:10029000310501017F0101053F4040403F051F201E
:1002A00040201F053F4038403F0563140814630594
:1002B0000304780403056151494543037F41410527
:1002C00003040810600341417F0504020102040495
:1002D0008080808003010204043844447C047F440D
:1002E00044380438444444043844447F0438545463
:1002F0005804047E05010418A4A47C047F04047837
:10030000017D0384857C047F102844017F057C04E3
:10031000780478047C040478043844443804FC24C9
:10032000241804182424FC047C040408045854549D
:100330003403047F04043C40407C041C20407C05C2
:100340003C4030403C046C10106C041CA0A07C04A9
:100350006454544C0408364141017F04414136083D
:100360000402010201057F4141417F053E5555557B
:1003700041053844443844057C2A2A3E14057E024F
:1003800002060605027E027E0205635549416305A9
:100390003844443C0405407E201E200506027E02AF
:1003A00002086313086463006060052A2A2A2A2A67
:1003B00003514A4403444A51050000FF010303E08E
:1003C00080FF053612362436030205020218180291
:1003D0001010053040FF0101041F01011E00000044
:1003E000000901017F017F020C027F000000000074
:1003F000000100017D0418247E2404447E4541054B
:10040000221C141C2205012A7C2A010177044E5566
:10041000553903020002077E81BDA5A5817E032612
:10042000292F0508142A14220408080818030808AC
:1004300008077E81BD95A9817E05010101010103A7
:1004400002050203242E24031915120315150A02AE
:10045000020104F82040780506097F017F02181880
:10046000040080A0C003121F1003262926052214B1
:100470002A140808402F1008041E117C08402F1071
:10048000080462554C0915553F1008041E117C05DF
:100490003048484D4005781516147805781416151F
:1004A00078057A1514157A057816151679057815D4
:1004B000141578057814151478077E09097F4949C1
:1004C00041059EA1612121057C54554644057C547B
:1004D000564544057E55544546057C5554454403D0
:1004E000457E4403447E4503467D4603457C4505E1
:1004F000087F49413E057C0A11227D053844454666
:1005000038053844464538053A4544453A053846A5
:100510004546390538454445380522140814220556
:100520007C625A463E053C4041423C053C404241CB
:100530003C053C4241423C053C4140413C050204F3
:100540007A0502043F12120C057E49494E300438E8
:1005500045467C043844467D043846457E043A4589
:10056000467D043845447D04304A4D7A0720545472
:1005700038545458049CA262220438555658043802
:10058000545659043856555A043855545902017A6C
:10059000027A01030279020302780204304B4B3CD9
:1005A000047A090A710430494A300430484A310457
:1005B000304A49320432494A310439444439050841
:1005C000082A08080438544C380438414278043862
:1005D000404279043842417A043A40407A0418A0F3
:1005E000A27904FC282810041AA0A07AD6092C0DA0
:1005F00011241FBECFEFD8E0DEBFCDBF11E0A0E0D9
:10060000B1E0EAE2FFE102C005900D92A439B10722
:10061000D9F722E0A4E9B1E001C01D92A037B207EA
:10062000E1F712E0C7EFD2E004C02197FE010E947B
:10063000560EC63FD107C9F70E94260A0C94880FB0
:100640000C940000AF92BF92CF92DF92EF92FF9294
:100650000F931F93CF93DF936C017B018B01040FEA
:10066000151FEB015E01AE18BF08C017D10759F086
:100670006991D601ED91FC910190F081E02DC601C8
:100680000995892B79F7C501DF91CF911F910F91C2
:10069000FF90EF90DF90CF90BF90AF900895FC0156
:1006A000538D448D252F30E0842F90E0821B930BD7
:1006B000541710F0CF96089501970895FC01918D7D
:1006C000828D981761F0A28DAE0FBF2FB11D5D9680
:1006D0008C91928D9F5F9F73928F90E008958FEF22
:1006E0009FEF0895FC01918D828D981731F0828DD6
:1006F000E80FF11D858D90E008958FEF9FEF08952D
:10070000FC01918D228D892F90E0805C9F4F821B90
:1007100091098F73992708958DEA91E00E948003D3
:1007200021E0892B09F420E0822F089580E090E0F9
:10073000892B29F00E948C0381110C9400000895EC
:10074000FC01A48DA80FB92FB11DA35ABF4F2C9146
:10075000848D90E001968F739927848FA689B7893D
:100760002C93A089B1898C91837080648C93938D34
:10077000848D981306C00288F389E02D80818F7DD7
:1007800080830895EF92FF920F931F93CF93DF938F
:10079000EC0181E0888F9B8D8C8D98131AC0E889BD
:1007A000F989808185FF15C09FB7F894EE89FF898C
:1007B0006083E889F98980818370806480839FBF2A
:1007C00081E090E0DF91CF911F910F91FF90EF902A
:1007D0000895F62E0B8D10E00F5F1F4F0F7311273A
:1007E000E02E8C8D8E110CC00FB607FCFACFE88975
:1007F000F989808185FFF5CFCE010E94A003F1CF5A
:10080000EB8DEC0FFD2FF11DE35AFF4FF0829FB7E8
:10081000F8940B8FEA89FB8980818062CFCFCF93D8
:10082000DF93EC01888D8823B9F0AA89BB89E88918
:10083000F9898C9185FD03C0808186FD0DC00FB6BE
:1008400007FCF7CF8C9185FFF2CF808185FFEDCF3C
:10085000CE010E94A003E9CFDF91CF9108958330AC
:1008600081F028F4813099F08230A9F00895873022
:10087000A9F08830C9F08430B1F4809180008F7D78
:1008800003C0809180008F7780938000089584B5A5
:100890008F7784BD089584B58F7DFBCF8091B000A4
:1008A0008F778093B00008958091B0008F7DF9CF4D
:1008B000CF93DF93282F30E0F901E458FF4F849164
:1008C000F901E656FF4FD491F901E255FF4FC4916B
:1008D000CC23A1F081110E942F04EC2FF0E0EE0F49
:1008E000FF1FEE58FF4FA591B491EC91ED2381E0ED
:1008F00090E009F480E0DF91CF91089580E090E0EE
:10090000FACF1F93CF93DF93282F30E0F901E458FB
:10091000FF4F8491F901E656FF4FD491F901E2555A
:10092000FF4FC491CC23A9F0162F81110E942F04F0
:10093000EC2FF0E0EE0FFF1FE859FF4FA591B491A7
:100940008FB7F894EC91111108C0D095DE23DC9399
:100950008FBFDF91CF911F910895DE2BF8CFCF93FA
:10096000DF9390E0FC01E656FF4F249182559F4FA4
:10097000FC0184918823D1F090E0880F991FFC013D
:10098000E057FF4FA591B491FC01E859FF4FC59185
:10099000D49161110EC09FB7F8948C91E22FE0952D
:1009A0008E238C932881E223E8839FBFDF91CF9130
:1009B00008958FB7F894EC91E22BEC938FBFF6CFAC
:1009C0003FB7F8948091A1019091A201A091A30159
:1009D000B091A40126B5A89B05C02F3F19F0019640
:1009E000A11DB11D3FBFBA2FA92F982F8827BC0189
:1009F000CD01620F711D811D911D42E0660F771FB1
:100A0000881F991F4A95D1F708958F929F92AF92B0
:100A1000BF92CF92DF92EF92FF924B015C010E9456
:100A2000E0046B017C010E94E0046C197D098E09D1
:100A30009F09683E734081059105A8F321E0821A61
:100A40009108A108B10888EEC80E83E0D81EE11C09
:100A5000F11C81149104A104B10429F7FF90EF90D7
:100A6000DF90CF90BF90AF909F908F900895EF92BE
:100A7000FF920F931F93CF93DF93809153028823AC
:100A8000A1F08091AC01882361F08FB7F894909128
:100A9000AC01913071F59DB39093AB019DB39DBBBB
:100AA0008FBF80E58CBD81E08DBD60E080915202FA
:100AB0000E948104809153028823F1F030E020E00D
:100AC0008091560290E0880F991F2817390708F087
:100AD0003DC0E0915902F0915A02E20FF31F80816C
:100AE0008EBD00000DB407FEFDCF8EB52F5F3F4FCA
:100AF000E7CF8093AB01D5CFD0E0C0E08091560224
:100B000090E0880F991FC817D90700F5E0915902A6
:100B1000F0915A02EC0FFD1F0081F0905102E0901D
:100B2000500218E0602F661F6627661F8E2D0E94F8
:100B30008104000F61E08F2D0E94810460E08F2D01
:100B40000E948104115071F72196D8CF61E0809105
:100B500052020E94810480915302882371F0809197
:100B6000AC01882351F09FB7F8942091AC0180919B
:100B7000AB01213049F48DBB9FBFDF91CF911F9115
:100B80000F91FF90EF9008958FBFF7CFEBE4F2E065
:100B9000438550E0440F551F70E060E086859785DF
:100BA0000C94810FEF92FF920F931F93CF93DF93DB
:100BB000FF24F394D0E0C0E001E010E0B9E0EB2EB8
:100BC0000E94C60598010C2E02C0220F331F0A9402
:100BD000E2F7E0E090E080915602E817E0F5EE9D44
:100BE000B0011124A0915702B0915802A60FB71F6F
:100BF00018964C9150E042235323452B51F14E2F30
:100C000050E08150990B841B950B880F991FA09180
:100C10005902B0915A02A80FB91FFC92A091570235
:100C2000B0915802A60FB71FAC0FBD1F6C918091F9
:100C300056028150990B841B950B880F991F409188
:100C4000590250915A02840F951FDC0111966C9342
:100C500091E0EF5FC0CF91110E9437052196F39488
:100C6000C830D10509F0ACCF80E099E02091560260
:100C7000821758F4E0915702F0915802899FE00DD5
:100C8000F11D112410868F5FF1CFDF91CF911F915D
:100C90000F91FF90EF900895DF92EF92FF920F93E4
:100CA0001F93CF93DF9399E0899F80011124F12C4A
:100CB000E12CC82FD0E0DD24D394DE0CE091570264
:100CC000F0915802E00FF11F808590E00E2C02C0D9
:100CD000959587950A94E2F780FF2DC00E94C6057E
:100CE000809156028150990B8C1B9D0B880F991F88
:100CF0002091590230915A02820F931FFC01D08239
:100D0000E0915702F0915802E00FF11FEE0DFF1D28
:100D10004081209156022150330B2C1B3D0B220F9A
:100D2000331F8091590290915A02280F391FF901FF
:100D300041830E943705FFEFEF1AFF0A88E0E816AB
:100D4000F10409F0B8CF8091570290915802080F32
:100D5000191FF8011086DF91CF911F910F91FF901D
:100D6000EF90DF9008958F929F92BF92CF92DF9283
:100D7000EF92FF920F931F93CF93DF93A62F242F11
:100D800090914D0230915602992309F478C090E079
:100D9000831708F05BC090914E029923C1F0229511
:100DA000422F50E09A013595279535952795237365
:100DB000440F551F440F551F4C7C242B30E0A901D4
:100DC000559547954575220F331F2A7A242B99E0B4
:100DD000899FF0011124C0915702D0915802CE0F83
:100DE000DF1F6A2F70E090914F0247E050E0461BF2
:100DF000570B911101C0AB01C40FD51F288320915F
:100E0000570230915802E20FF31F908520914F0254
:100E1000222349F127E030E0261B370B41E050E068
:100E200060E070E004C0440F551F661F771F2A95CD
:100E3000D2F7492B408790915F02992331F090912E
:100E40005602891710F40E944C0691E0892FDF9119
:100E5000CF911F910F91FF90EF90DF90CF90BF90B7
:100E60009F908F90089541E050E060E070E004C0F2
:100E7000440F551F661F771FAA95D2F7DACF831745
:100E800028F7B9E08B9FE001112441E050E060E0D9
:100E900070E06A017B010A2E04C0CC0CDD1CEE1C44
:100EA000FF1C0A94D2F71C2D9C2D9095E7E0F0E0F2
:100EB000EA1BF10904C0440F551F661F771FEA950E
:100EC000D2F7042F4095F0E0E0E0E22EF12C27E08D
:100ED000822E912CBF0120915702309158022C0F85
:100EE0003D1FB0904F0250914E0267010E2E02C07E
:100EF000D594C7940A94E2F7C0FE1CC0BB2019F039
:100F0000B4016E1B7F0B620F731FDB013C91212F1D
:100F10005111202F322BDB013C933196E830F10543
:100F2000C9F62091570230915802C20FD31F9FEF8C
:100F3000988781CFBB2019F0B4016E1B7F0B620F25
:100F4000731FDB013C91292F5111242F3223E3CF52
:100F50008F929F92AF92BF92CF92DF92EF92FF92C9
:100F60000F931F93CF93DF93609102017091030160
:100F70000091000110910101EB0183E0CC0FDD1F16
:100F80008A95E1F7FE01EA5FFE4FE00FF11FD08086
:100F900081E0808394E9E92E91E0F92E46E051E06A
:100FA000F701DA0127E030E0C12C8D91022E01C05B
:100FB000880F0A94EAF7C82A21503109B0F7C19284
:100FC000485F5F4F81E0EC39F80759F790E080E027
:100FD00027E030E0261B370B41E88217930764F4C3
:100FE000EBE9F1E05291518351E0E439F507D1F793
:100FF000409394010196F1CFC12CF70181907F01BC
:10100000A0905602AA9490905F0210925F02B12CB9
:10101000482D6C2D8B2D0E94B306B394AB14C0F7F2
:1010200090925F0291100E94D205C394F8E0CF1213
:10103000E4CFCA5FDE4FC00FD11FD88268EC70E0EA
:1010400080E090E0DF91CF911F910F91FF90EF90A2
:10105000DF90CF90BF90AF909F908F900C9405053C
:10106000FF920F931F93CF93DF938A30910508F07F
:1010700061C08B01EC01F09056020E94C60540E071
:10108000E02F5FEF5F0DC230D10509F449C088F44D
:101090002097E9F08E2F9BE0C130D105F1F04F5F32
:1010A000541788F7DF91CF911F910F91FF900C9407
:1010B0003705C330D105B9F1C430D10581F781E0DE
:1010C0000115110509F480E0819599E006C081E0E1
:1010D0000115110509F080E09CE0642F70E020917B
:1010E00056022150330B261B370B220F331FA091C2
:1010F0005902B0915A02A20FB31F9C93209156023D
:101100002150330B261B370B220F331F60915902DE
:1011100070915A02260F371FD90111968C93BFCFB9
:101120008E2F9AE0DACF81E00115110509F480E0F5
:101130009FE0D3CF21E06130710509F020E00B97EB
:1011400061F020935F026130710549F4DF91CF9126
:101150001F910F91FF900C94D20520936002DF91B4
:10116000CF911F910F91FF900895FC0101900020F5
:10117000E9F73197AF01481B590BBC018DEA91E0AB
:101180000C9422038F929F92AF92BF920F931F9362
:10119000CF93DF93CDB7DEB7A1970FB6F894DEBF3C
:1011A0000FBECDBF19A2423008F44AE08E010F5D98
:1011B0001F4F842E912CB12CA12CA50194010E94CB
:1011C000250EE62FB901CA01EA30F4F4E05DD8013A
:1011D000EE938D01232B242B252B79F790E080E0D3
:1011E000109719F0CD010E94B508A1960FB6F8949A
:1011F000DEBF0FBECDBFDF91CF911F910F91BF908A
:10120000AF909F908F900895E95CE1CF0F931F936B
:10121000CF93DF9383E691E00E94B50881E080934D
:10122000AA01C0E010915602115000915F02109285
:101230005F02D0E04FEF6C2F8D2F0E94B306DF5F6F
:101240001D17C0F700935F0201110E94D205CF5F06
:10125000C83041F768EC70E080E090E0DF91CF911A
:101260001F910F910C9405051F920F920FB60F92CC
:1012700011242F933F934F935F936F937F938F939B
:101280009F93AF93BF93EF93FF938DEA91E00E94FA
:10129000A003FF91EF91BF91AF919F918F917F91AB
:1012A0006F915F914F913F912F910F900FBE0F90D3
:1012B0001F9018951F920F920FB60F9211242F9323
:1012C0008F939F93EF93FF93E091BD01F091BE0147
:1012D0008081E091C301F091C40182FD1BC0908127
:1012E0008091C6018F5F8F732091C701821741F0F3
:1012F000E091C601F0E0E355FE4F958F8093C60163
:10130000FF91EF919F918F912F910F900FBE0F90B2
:101310001F9018958081F4CF1F920F920FB60F92F5
:1013200011242F933F938F939F93AF93BF938091FB
:101330009D0190919E01A0919F01B091A0013091DB
:101340009C0123E0230F2D3758F50196A11DB11DF7
:1013500020939C0180939D0190939E01A0939F01F7
:10136000B093A0018091A1019091A201A091A3014D
:10137000B091A4010196A11DB11D8093A10190938C
:10138000A201A093A301B093A401BF91AF919F913B
:101390008F913F912F910F900FBE0F901F90189536
:1013A00026E8230F0296A11DB11DD2CFEDEAF1E090
:1013B0001382128288EE93E0A0E0B0E084839583EC
:1013C000A683B78385E591E09183808385EC90E0E7
:1013D0009587848784EC90E09787868780EC90E0FF
:1013E000918B808B81EC90E0938B828B82EC90E0F0
:1013F000958B848B86EC90E0978B868B118E128E6A
:10140000138E148EEBE4F2E0158216828AE0878355
:1014100081E080872AE432E0328721878387848BCA
:1014200022E030E0318320838283838314828091A1
:101430004601E6E0F1E08183828380910501838F9C
:10144000848F8091040185A786A70895789484B538
:10145000826084BD84B5816084BD85B5826085BDB0
:1014600085B5816085BD80916E00816080936E003E
:101470001092810080918100826080938100809130
:1014800081008160809381008091800081608093E1
:1014900080008091B10084608093B1008091B000A1
:1014A00081608093B00080917A00846080937A009C
:1014B00080917A00826080937A0080917A008160C6
:1014C00080937A0080917A00806880937A001092ED
:1014D000C100E091BD01F091BE0182E08083E09106
:1014E000B901F091BA011082E091BB01F091BC0109
:1014F0008FEC80831092C501E091C101F091C2018F
:1015000086E08083E091BF01F091C001808180611D
:101510008083E091BF01F091C00180818860808369
:10152000E091BF01F091C001808180688083E091EB
:10153000BF01F091C00180818F7D80838091530233
:10154000882309F4C4C0CFB7F8948091A501811114
:1015500027C0E8EBF0E08491E4EAF0E09491E82F12
:10156000F0E0EE0FFF1FE057FF4FA591B491EC9113
:10157000E92321F461E08AE00E94810461E08AE0CD
:101580000E94AF048CB580618CBD8CB580648CBD2D
:1015900061E08DE00E94AF0461E08BE00E94AF0447
:1015A0008091A5018F5F8093A501CFBF61E08091FD
:1015B00052020E94AF0461E0809152020E948104B5
:1015C00010925C0210925B0210925E0210925D0219
:1015D0008091610290916202825C904009F49CC00B
:1015E000E2ECF0E0F0936202E09361021092630299
:1015F00088E08093640210926702109266028FEF77
:1016000090E0909369028093680210926B021092AE
:101610006A02E491E63409F033C0E3ECF0E0E491CF
:10162000E13009F45FC082E090E0E23029F5E4ECBB
:10163000F0E08491E5ECF0E0E49190E0982F8827C9
:101640008E0F911D9093670280936602E6ECF0E0A6
:101650008491E7ECF0E0E49190E0982F88278E0FDA
:10166000911D9093690280936802E8ECF0E0E491A8
:10167000E093640287E090E090936B0280936A02AB
:10168000C0906A02D0906B02F12CE12C209166028E
:1016900030916702409168025091690260E0421700
:1016A000530708F437C0F601EE53FF4F84916817D3
:1016B00008F4682F90E0B0E0A0E00196A11DB11DF4
:1016C000C80ED91EEA1EFB1E2F5F3F4FE8CF61E018
:1016D000809150020E94AF0461E0809151020E940B
:1016E000AF0464CFE4ECF0E0E491F0E0F093670243
:1016F000E0936602E5ECF0E0E491F0E0F09369023B
:10170000E0936802E6ECF0E0E491E093640285E0A7
:1017100090E0B2CF60936502C091560279E0C79F16
:10172000C00111240E945C0E8C019093580280939A
:1017300057028C2F90E0880F991F0E945C0E9093A7
:101740005A0280935902892B09F451C0012B09F4E4
:101750004EC070E060E083E090E00E94300867E0F7
:1017600070E081E090E00E94300867E070E082E085
:1017700090E00E94300870E060E084E090E00E9419
:10178000300890915602915080E069E058E04FEFA8
:10179000869F90011124A0915702B0915802A20F88
:1017A000B31FFD01752F11927A95E9F7E091570269
:1017B000F0915802E20FF31F40878F5F981740F7B0
:1017C00080915F0281110E94D20570E060E090E09C
:1017D00080E00E94300870E060E08BE090E00E94C2
:1017E000300861E070E08AE090E00E94300860E03C
:1017F00085E00E94AF0460E084E00E94AF0433E023
:10180000232E312C42E0842E912CA12CB12C50E0BF
:10181000452E50E0552E64E6662E712C75E0E72EBD
:10182000F12CE4E0CE2ED12C1092AA0187E090E0BA
:1018300090930301809302013092010120920001F4
:101840000E949B0DA50194010E94F30D6093040179
:101850000E949B0DA50194010E94F30D6093050168
:101860000E949B0DA50194010E94F30D6093460117
:1018700081E791E00E94B5086091040170E090E07A
:1018800080E04AE00E94C2086091050170E090E0AB
:1018900080E04AE00E94C2086091460170E090E05A
:1018A00080E04AE00E94C208A6E0B1E0FD0110829B
:1018B0001182128213821482158216821782389640
:1018C00091E0E634F90799F721E02C9317962C93D1
:1018D00017971896EA17FB07B9F78091460180938E
:1018E0000701809308018091050180932101809375
:1018F00022018091040180933301809334010E947E
:10190000A80708E010E08091AA0181110DC084E0D1
:101910000E945804892BF1F4D092A901C092A80129
:1019200086E791E00E94B5088091AA0181112FC03D
:101930008091A8019091A90185309105E1F4C091B1
:101940000001D09101012196C730D105E1F40E9438
:10195000060919C085E00E945804892B39F4F092D9
:10196000A901E092A8018BE791E0DCCF7092A90178
:101970006092A801D9CF049751F4C0910001D09191
:101980000101219721F3D0930101C09300018091BF
:10199000AA01811121C0809100019091010100975D
:1019A00011F0079711F40E940609809102019091AD
:1019B000030123E0880F991F2A95E1F78A5F9E4F64
:1019C0002091000130910101820F931FFC01808161
:1019D000813011F40E940609C091AA01C11113C0FF
:1019E0008091020190910301009729F00197909353
:1019F0000301809302010E94A80768EE73E080E073
:101A000090E00E9405050150110909F07CCFC11139
:101A100009C08091A6019091A70101969093A7011A
:101A20008093A60181E891E00E94B50881E991E0E8
:101A30000E94B50868EE73E080E090E00E94050522
:101A40004114510409F4F0CE0E948C03882309F458
:101A5000EBCE0E940000E8CE80915302882399F0DB
:101A60009FB7F8948091A501882319F08150809345
:101A7000A5018091A501811105C08CB58F7B8CBD1E
:101A80001092AC019FBF80915702909158020E9422
:101A9000F80E8091590290915A020C94F80E8F9290
:101AA0009F92AF92BF92CF92DF92EF92FF92CF932D
:101AB000DF93EC01688179818A819B8161157105D1
:101AC0008105910521F464E279ED8BE597E02DE144
:101AD00033EF41E050E00E94F30D49015A019B01B0
:101AE000AC01A7EAB1E40E94120E6B017C01ACEEDE
:101AF000B4EFA50194010E94200EC60ED71EE81E69
:101B0000F91EF7FE06C081E0C81AD108E10880E896
:101B1000F80AC882D982EA82FB82C701B6019F77A0
:101B2000DF91CF91FF90EF90DF90CF90BF90AF907B
:101B30009F908F9008958F929F92AF92BF92CF9275
:101B4000DF92EF92FF92609147017091480180917E
:101B5000490190914A01611571058105910521F4B2
:101B600064E279ED8BE597E02DE133EF41E050E061
:101B70000E94F30D49015A019B01AC01A7EAB1E4AF
:101B80000E94120E6B017C01ACEEB4EFA501940132
:101B90000E94200EC60ED71EE81EF91EF7FE06C0D4
:101BA00081E0C81AD108E10880E8F80AC09247012C
:101BB000D0924801E0924901F0924A01C701B60172
:101BC0009F77FF90EF90DF90CF90BF90AF909F9066
:101BD0008F90089560934701709348018093490165
:101BE00090934A010895052E97FB1EF400940E94DD
:101BF0000A0E57FD07D00E94250E07FC03D04EF4B5
:101C00000C940A0E50954095309521953F4F4F4FBB
:101C10005F4F089590958095709561957F4F8F4F98
:101C20009F4F08950E94470EA59F900DB49F900D61
:101C3000A49F800D911D11240895B7FF0C94120EDE
:101C40000E94120E821B930B0895A1E21A2EAA1B6A
:101C5000BB1BFD010DC0AA1FBB1FEE1FFF1FA2175C
:101C6000B307E407F50720F0A21BB30BE40BF50B59
:101C7000661F771F881F991F1A9469F760957095E2
:101C8000809590959B01AC01BD01CF010895A29F65
:101C9000B001B39FC001A39F700D811D1124911D40
:101CA000B29F700D811D1124911D0895EE0FFF1F2D
:101CB0000590F491E02D09940F931F93CF93DF9338
:101CC0008230910510F482E090E0E0916E02F09194
:101CD0006F0230E020E0B0E0A0E0309799F42115E9
:101CE000310509F44AC0281B390B24303105D8F5D9
:101CF0008A819B816115710589F1FB019383828340
:101D0000FE0111C04081518102811381481759079A
:101D1000E0F04817590799F4109761F012960C9368
:101D2000129713961C933296CF01DF91CF911F919A
:101D30000F91089500936E0210936F02F4CF211556
:101D4000310551F04217530738F0A901DB019A0120
:101D5000BD01DF01F801C1CFEF01F9CF90936F0210
:101D600080936E02CDCFFE01E20FF31F819391931A
:101D70002250310939832883D7CF20916C023091CA
:101D80006D02232B41F420914D0130914E0130938F
:101D90006D0220936C0220914B0130914C01211572
:101DA000310541F42DB73EB740914F01509150019C
:101DB000241B350BE0916C02F0916D02E217F307E2
:101DC000A0F42E1B3F0B2817390778F0AC014E5FAB
:101DD0005F4F2417350748F04E0F5F1F50936D0279
:101DE00040936C02819391939FCFF0E0E0E09CCF11
:101DF000CF93DF930097E9F0FC01329713821282B0
:101E0000A0916E02B0916F02ED0130E020E01097DA
:101E1000A1F420813181820F931F20916C023091B7
:101E20006D022817390709F061C0F0936D02E09345
:101E30006C02DF91CF910895EA01CE17DF07E8F534
:101E40004A815B819E0141155105B1F7E901FB8390
:101E5000EA8349915991C40FD51FEC17FD0761F42E
:101E6000808191810296840F951FE901998388836F
:101E7000828193819B838A83F0E0E0E012968D91CA
:101E80009C9113970097B9F52D913C911197CD0135
:101E90000296820F931F20916C0230916D022817D9
:101EA000390739F6309751F510926F0210926E0291
:101EB000B0936D02A0936C02BCCFD383C2834081E8
:101EC0005181840F951FC817D90761F44E5F5F4F8A
:101ED00088819981480F591F518340838A819B8152
:101EE000938382832115310509F0B0CFF0936F02FF
:101EF000E0936E029ECFFD01DC01C0CF13821282FF
:101F0000D7CFDC0101C06D9341505040E0F70895F8
:101F100012E0C7EFD2E004C0FE010E94560E2196E7
:101F2000C83FD107C9F7F894FFCF030007000101AC
:101F3000010000000000000101000000000000019D
:101F4000010000000000000101000000000000018D
:101F5000010000000000000101000000000000017D
:101F6000010000000000000101000000000000016D
:101F7000010100000000007002800000000000C2AB
:101F80000322034F030F0480035E03720363616C3B
:101F90006C656420646561746821002D2D2D2D0011
:101FA0006C65667400726967687400656E645F755D
:0E1FB0007064617420746F74616C000D0A001F
:107E0000112484B714BE81FFF0D085E080938100F7
:107E100082E08093C00088E18093C10086E0809377
:107E2000C20080E18093C4008EE0C9D0259A86E02C
:107E300020E33CEF91E0309385002093840096BBD3
:107E4000B09BFECF1D9AA8958150A9F7CC24DD24C4
:107E500088248394B5E0AB2EA1E19A2EF3E0BF2EE7
:107E6000A2D0813461F49FD0082FAFD0023811F036
:107E7000013811F484E001C083E08DD089C08234E0
:107E800011F484E103C0853419F485E0A6D080C0E4
:107E9000853579F488D0E82EFF2485D0082F10E0AE
:107EA000102F00270E291F29000F111F8ED06801E7
:107EB0006FC0863521F484E090D080E0DECF843638
:107EC00009F040C070D06FD0082F6DD080E0C81688
:107ED00080E7D80618F4F601B7BEE895C0E0D1E017
:107EE00062D089930C17E1F7F0E0CF16F0E7DF06D8
:107EF00018F0F601B7BEE89568D007B600FCFDCFD4
:107F0000A601A0E0B1E02C9130E011968C91119780
:107F100090E0982F8827822B932B1296FA010C0160
:107F200087BEE89511244E5F5F4FF1E0A038BF0790
:107F300051F7F601A7BEE89507B600FCFDCF97BE46
:107F4000E89526C08437B1F42ED02DD0F82E2BD052
:107F50003CD0F601EF2C8F010F5F1F4F84911BD097
:107F6000EA94F801C1F70894C11CD11CFA94CF0C13
:107F7000D11C0EC0853739F428D08EE10CD085E9AC
:107F80000AD08FE07ACF813511F488E018D01DD067
:107F900080E101D065CF982F8091C00085FFFCCF94
:107FA0009093C60008958091C00087FFFCCF809118
:107FB000C00084FD01C0A8958091C6000895E0E648
:107FC000F0E098E1908380830895EDDF803219F02E
:107FD00088E0F5DFFFCF84E1DECF1F93182FE3DFCA
:107FE0001150E9F7F2DF1F91089580E0E8DFEE27F6
:047FF000FF270994CA
:027FFE00040479
:00000001FF
